:020000040000FA
:1000000018090020F3040000FF040000772A000014
:1000100003050000050500000705000000000000C2
:1000200000000000000000000000000009050000C2
:100030000B050000000000000D0500000F0500008A
:10004000ED0D000011050000110500001105000074
:100050001105000011050000110500001105000048
:100060001105000011050000110500001105000038
:100070001105000011050000110500001105000028
:100080001105000011050000110500001105000018
:100090001105000011050000110500001105000008
:1000A00011050000110500001105000011050000F8
:1000B00011050000110500001105000011050000E8
:1000C0001105000041640000110500001105000049
:1000D00011050000110500001105000011050000C8
:1000E0001105000011050000D519000011050000E0
:1000F00011050000110500001105000011050000A8
:10010000593B00004D3C00001105000011050000A6
:100110001105000011050000110500001105000087
:100120001105000011050000110500001105000077
:10013000613C0000293D000011050000913D0000D8
:100140001105000011050000110500001105000057
:100150001105000011050000110500001105000047
:100160001105000011050000110500001105000037
:100170001105000011050000110500001105000027
:10040000FFFFFFFFFFFFFFFFFFFFFFFFFEFFFFFFFD
:1004100000F002F800F05CF80AA090E8000C8244BA
:100420008344AAF10107DA4501D100F051F8AFF297
:10043000090EBAE80F0013F0010F18BFFB1A43F0C2
:1004400001031847AC920000CC9200000A444FF020
:10045000000C10F8013B13F0070408BF10F8014B23
:100460001D1108BF10F8015B641E05D010F8016B68
:10047000641E01F8016BF9D113F0080F1EBF10F8CC
:10048000014BAD1C0C1B09D16D1E58BF01F801CBEF
:10049000FAD505E014F8016B01F8016B6D1EF9D572
:1004A0009142D6D370470000002300240025002687
:1004B000103A28BF78C1FBD8520728BF30C148BFC7
:1004C0000B6070471FB509F07EF81FBD10B510BD59
:1004D00000F048F81146FFF7F5FF07F0C7FB00F002
:1004E00066F803B4FFF7F2FF03BC00F069F8000000
:1004F00070470B4880470B4880470B480047FEE792
:10050000FEE7FEE7FEE7FEE7FEE7FEE7FEE7FEE7C3
:10051000FEE7000005480649044A064B7047000004
:100520000D640000F1040000110400001805002013
:10053000180900201805002070477047704710B553
:1005400000F008F8006810BD10B5044600F002F88D
:10055000046010BD00487047B80400200048704790
:10056000B80400207546FFF7F9FFAE46050069465E
:10057000534620F00700854618B020B5FFF7CAFFA4
:10058000BDE820404FF000064FF000074FF0000894
:100590004FF0000B21F00701AC46ACE8C009ACE815
:1005A000C009ACE8C009ACE8C0098D46704710B579
:1005B0000446AFF300802046BDE81040FFF791BF2E
:1005C00001491820ABBEFEE726000200704700007C
:1005D00000B52DED108B9FB0B0EE40AAF0EE60AAF2
:1005E000B0EE41BAF0EE61CAF0EE42BAB0EE62CAC5
:1005F000F0EE439AB0EE638AF0EE448AF5EEC09ACC
:10060000F1EE10FA1CD1B5EEC08AF1EE10FA17D156
:10061000F5EEC08AF1EE10FA12D1F0EE4C2AB0EEEF
:100620006B2AF0EE6C1AB0EE4B1AF0EE6A0AB0EEDE
:100630004A0A02F0E1FA01201FB0BDEC108B00BDA8
:10064000F5EEC0CAF1EE10FA09D1F5EEC0BAF1EE3E
:1006500010FA04D1B5EEC0CAF1EE10FA7ED06CEEFD
:10066000AC0A4BEEAB0A4CEE0C0AB0EE600A07F097
:10067000DFFAB0EE409A2CEE890AF0EE40CA2BEE7B
:10068000890AF0EE40BA2CEE090AB0EE40CA69EED3
:10069000A90A48EE080A48EEA80AB0EE600A07F078
:1006A000C7FAB0EE409A29EE890AF0EE409A28EE99
:1006B000090AB0EE408A28EE890AF0EE408AFE4828
:1006C00090ED000A20EE000A8DED1D0A90ED000A63
:1006D000FA48D0ED000A60EE20EAF74890ED000AF3
:1006E000F748D0ED000A20EE20DAF34890ED000A3A
:1006F000F448D0ED000A20EE200A8DED1C0AEF48E8
:1007000090ED000A20EE000A8DED1B0A90ED000A24
:10071000EB48D0ED000A20EE200A8DED1A0AE748DA
:1007200090ED000AE748D0ED000A60EE20DAE448D8
:1007300090ED000A20EE00FA90ED000AE148D0EDBD
:10074000000A60EE20FA90ED000A20EE000A8DED1E
:10075000190AB6EE000A70EE4F0A00E07DE19DED49
:10076000190A30EEC00A20EE291A9DED1A0ADDEDB5
:100770001C0A70EE600AB0EE410A08EE200A7DEE17
:100780008D0A08EEA00AF0EE000A20EE200A8DED98
:10079000180A9DED1A0ADDED1C0A30EE200A60EE03
:1007A000290A9DED1B0AB6EE001A31EE401A9DEDA6
:1007B000190A31EE401AB0EE600A08EE010A7FEE27
:1007C000EE0A08EEA00AF0EE000A20EE200A8DEDF7
:1007D000170A9DED180A60EE000A9DED170A40EE1B
:1007E000000A10EE901A084608F07CFECDE90601DA
:1007F0009DED060B06F0DCFB8DED080B9DED080B67
:1008000051EC100B08F036F916903DEECD0A20EEB3
:10081000290A7FEEAE0A08EE200ADDED1B0AB6EECD
:10082000001A71EE600A70EECF0A08EEA00AF0EE30
:10083000000A20EE200A8DED150A3DEECD0A8DED61
:10084000140A3EEEAF0A8DED130A9DED1D0AF6EE79
:10085000000A70EE600A9DED190A30EE800A8DEDF7
:10086000120AB6EE000A70EE4F0A9DED190A70EEFC
:10087000C00A9DED160A20EE800A3DEECD1ADDED90
:10088000150A00EE810A8DED110A9DED1A0ADDEDC3
:100890001C0A70EE600A9DED160A20EE800A3EEEFC
:1008A000AF1ADDED150A00EE810A8DED100A7DEE1E
:1008B0002D0A9DED160A20EE801A9DED1B0AF6EE1C
:1008C000000A30EEC00A70EE4F1ADDED150AB0EEE8
:1008D000410A00EEA10A8DED0F0A9DED120A6BEEA2
:1008E000800A9DED130A4CEE400A9DED0F0A28EE9A
:1008F000001A9DED100A08EEC01A30EE81EA9DED57
:10090000140A6CEE000A9DED120A4CEEC00A9DED31
:10091000110A28EE801A9DED0F0A09EEC01A30EE7A
:10092000810A8DED0E0A9DED130A6CEE800A9DED95
:10093000140A4BEEC00A9DED100A29EE801A9DEDB7
:10094000110A08EE401A30EE810A8DED0D0AB5EE5F
:10095000C0EAF1EE10FA54D0B5EEC0EAF1EE10FAAA
:100960004FD0B5EEC0EAF1EE10FA4AD0564890EDFD
:10097000000AB5EEC00AF1EE10FA51DD90ED000A62
:1009800060EE0E0A514890ED000A9FED511A00EEFC
:10099000810A80ED000A4C48D0ED000A9DED0E0A58
:1009A00060EE800A4B4890ED000A9FED491A00EE78
:1009B000810A80ED000A4448D0ED000A9DED0D0A41
:1009C00060EE800A444890ED000A9FED411A00EE67
:1009D000810A80ED000A3D4890ED000A3AEE000AD7
:1009E000B0EE40AA3B4890ED000A3AEE800AF0EEE5
:1009F00040AA394890ED000A3BEE000AB0EE40BA3A
:100A00000EE09FED360A314880ED000A9FED330A73
:100A1000304880ED000A9FED310A2F4880ED000A32
:100A20002F48D0ED000AB0EE4A0A00EE8E0AB0EE72
:100A300040AA90ED001A9DED0E0AF0EE6A0A41EE12
:100A4000000AF0EE60AA90ED001A9DED0D0AF0EE9E
:100A50004B0A41EE000AB0EE60BA9FED220A2AEE80
:100A6000000AB0EE40AA9FED1F0A2AEE800AF0EEBF
:100A700040AA9FED1C0A2BEE000AB0EE40BA0E48C9
:100A800090ED000A8DED0C0A0C4890ED000A8DEDFA
:100A90000B0A0B4890ED000A8DED0A0A9DED0B0A3A
:100AA000B1EE400A60EE0A0A9DED0A0A40EE6A0ABB
:100AB000044890ED000A17E01402002018020020FC
:100AC0001C02002020020020380200203C020020EE
:100AD0000AD7233B4002002044020020000000000F
:100AE000340200200AD7A33A40EE4B0AB44890EDF6
:100AF000000A30EE800A80ED000A9DED0C0A60EEDF
:100B00000A0A9DED0A0A40EE0B0AAE4890ED000A73
:100B100040EE6A0AAC4890ED000A30EE800A80EDA3
:100B2000000A9DED0C0A60EE2A0A9DED0B0A40EECC
:100B30004B0AA44890ED000A40EE0A0AA34890ED43
:100B4000000A30EE800A80ED000A9DED0C0A20EECE
:100B50000B0ADDED0B0A00EEAA0ADDED0A0A00EE33
:100B6000CA0A9848D0ED000A30EE200A80ED000A4B
:100B70009348D0ED000A60EEA00A934890ED001A69
:100B8000D0ED001A41EE210A904890ED001AD0ED08
:100B9000001A41EE210A8B4890ED001AD0ED001AA0
:100BA00041EE210AB0EE600A07F042F8B0EE409A3A
:100BB000834890ED000A20EE090A80ED000A824881
:100BC00090ED000A20EE090A80ED000A7F4890EDC2
:100BD000000A20EE090A80ED000A7A4890ED000A2A
:100BE00020EE090A80ED000A774890ED000AF8EE41
:100BF000000A20EE200AD0ED000A20EE200A7148FB
:100C0000D0ED000AB0EE001A60EE810A90ED001AF5
:100C100000EEC10AF7EE000A30EE200A10EE101ABC
:100C2000084608F05FFCCDE90201674890ED000A34
:100C3000F0EE000A20EE200A6448D0ED000A20EE13
:100C4000200A5F48D0ED000AB0EE001A60EE810A7B
:100C50005C4890ED001A00EEC10A10EE101A08462A
:100C600008F040FCCDE900019DED021B9DED000B5D
:100C700005F0FEFF8DED040B9DED040B51EC100B08
:100C800007F0ECFE9FED520B53EC102BCDE9060163
:100C90009DED060B51EC100B08F064F9CDE908014D
:100CA0009DED080B51EC100B07F0E4FE4A4908607B
:100CB000454890ED000A20EE000A4448D0ED000AB5
:100CC00090ED001A00EE810AF7EE000AB0EE001A6D
:100CD00041EE400A10EE901A084608F003FCCDE9F8
:100CE0000401374890ED000A3748D0ED000A20EEA5
:100CF000200A3648D0ED000A324890ED001A00EE86
:100D0000810AF0EE000A20EE200A10EE101A0846C2
:100D100008F0E8FBCDE902019DED041B9DED020BFF
:100D200005F0A6FF8DED060B9FED2C0B53EC102B61
:100D30009DED060B51EC100B08F014F9CDE90801FC
:100D40009DED080B51EC100B07F094FE254908604F
:100D50001D4890ED000A1B48D0ED000A20EE200A45
:100D60001748D0ED000A194890ED001A00EEC10AAC
:100D7000F0EE000A20EE200A10EE101A084608F0E5
:100D8000B1FBCDE904019DED040B05F055FC8DEDA3
:100D9000060B9FED120B53EC102B9DED060B51EC47
:100DA000100B08F0DFF8CDE908019DED080B51ECC0
:100DB000100B07F05FFE0C49086001203CE40000C6
:100DC0001402002020020020180200201C02002033
:100DD000CB67791EDCA54C401002002000000060AB
:100DE00066A64C400C020020080200200D48007846
:100DF00040F001000B4908700B48406A40F00100C8
:100E000009494862002001218140084A430942F80B
:100E1000231000BF0448C06820F001000249C860E8
:100E200070470000340100200080004080E100E0B5
:100E30002DE9FF5F04460F460EAD95E860070DB93A
:100E4000012008E0012D01D1022004E0022D01D192
:100E5000042000E0102083464548006C40F002006A
:100E6000434908640846C06B40F00200C86341482B
:100E700000EB441007603F4901EB44110298086100
:100E80003C4800EB4410A0F804803A4800EB4410C2
:100E9000A0F814904FF4E06000EA052005F0070187
:100EA0000843344901EB4411C8800021314800EB6C
:100EB0004410C1822F4800EB4410C18AC6F30E00D3
:100EC00001432C4800EB4410C1820021294800EB6B
:100ED0004410C183274800EB4410C18BC6F30E00B9
:100EE0000143244800EB4410C1832348006820F0EC
:100EF0008000214908601F4800EB4410C0F808B08A
:100F0000B8F1000F05D100211A4800EB4410C16070
:100F100009E00AF0200008B9714200E000211548FC
:100F200000EB4410C160B9F1000F05D10021114858
:100F300000EB4410816109E00AF0200008B9714219
:100F400000E000210B4800EB441081610A210948B0
:100F500000EB44108183039800F03F0040F08000D4
:100F60000649605460B202F0B7FDBDE8FF9F000083
:100F700000800440009000400080004000100240CB
:100F80002DE9F0412DED048B04460D460026002787
:100F900004E0E05D3044C6B2781CC7B2681EB842B7
:100FA000F7DC601910F8010CB04203D0BDEC048BE3
:100FB000BDE8F0812078AA2802D16078AF2800D05F
:100FC000F4E7A078012812D1207901280FD02079E8
:100FD00002280CD02079032809D02079042806D0D3
:100FE0002079212802DB2079262800DD00BFA078A7
:100FF000022800D100BFA07810287CD121790902F5
:1010000009B2627941EA020007F095FF41EC190B41
:101010009FEDD90B53EC102B07F0A4FF41EC180BFC
:1010200007F028FDD6490860A179090209B2E279E2
:1010300041EA020007F07FFF41EC190B9FEDD10B55
:1010400053EC102B07F08EFF41EC180B07F012FD4C
:10105000CB494860217A090209B2627A41EA02006A
:1010600007F069FF41EC190B9FEDC30B53EC102BFC
:1010700007F078FF41EC180B07F0FCFCC0498860D2
:10108000A17A090209B2E27A41EA020007F053FFAD
:1010900041EC190B9FEDB80B53EC102B07F062FFDE
:1010A00041EC180B07F0E6FCB8490860217B090207
:1010B00009B2627B41EA020007F03DFF41EC190BE7
:1010C0009FEDB00B53EC102B07F04CFF41EC180BCD
:1010D00007F0D0FCAD494860A17B090209B2E27B70
:1010E00041EA020007F027FF41EC190B9FEDA20B2C
:1010F00053EC102B00E04DE007F034FF41EC180BEF
:1011000007F0B8FCA1498860217C090209B2627C21
:1011100041EA020007F00FFF41EC190B9FED960B1F
:1011200053EC102B07F01EFF41EC180B07F0A2FC4C
:1011300097490860A17C090209B2E27C41EA0200F9
:1011400007F0F9FE41EC190B9FED8E0B53EC102BC1
:1011500007F008FF41EC180B07F08CFC8C49486045
:10116000217D090209B2627D41EA020007F0E3FE37
:1011700041EC190B9FED800B53EC102B07F0F2FEA6
:1011800041EC180B07F076FC81498860A078314665
:1011900005F0E6F8A07811287ED12179090209B27C
:1011A000627941EA020007F0C6FE41EC190B9FED9F
:1011B000720B53EC102B07F0D5FE41EC180B07F027
:1011C00059FC74490860A179090209B2E27941EA3F
:1011D000020007F0B0FE41EC190B9FED670B53ECDA
:1011E000102B07F0BFFE41EC180B07F043FC6949D8
:1011F0004860217A090209B2627A41EA020007F0E6
:101200009AFE41EC190B9FED5C0B53EC102B07F091
:10121000A9FE41EC180B07F02DFC5E498860A17A0D
:10122000090209B2E27A41EA020007F084FE41ECC9
:10123000190B9FED510B53EC102B07F093FE41EC73
:10124000180B07F017FC54490860217B090209B20A
:10125000627B41EA020007F06EFE41EC190B9FED44
:10126000460B53EC102B07F07DFE41EC180B07F0FA
:1012700001FC49494860A17B090209B2E27B41EACD
:10128000020007F058FE41EC190B9FED3B0B53ECAD
:10129000102B07F067FE00E04BE041EC180B07F065
:1012A000E9FB3D498860217C090209B2627C41EA80
:1012B000020007F040FE41EC190B9FED2F0B53ECA1
:1012C000102B07F04FFE41EC180B07F0D3FB33490E
:1012D0000860A17C090209B2E27C41EA020007F041
:1012E0002AFE41EC190B9FED240B53EC102B07F059
:1012F00039FE41EC180B07F0BDFB28494860217D01
:10130000090209B2627D41EA020007F014FE41ECD5
:10131000190B9FED190B53EC102B07F023FE41EC3A
:10132000180B07F0A7FB1D498860A078314605F02F
:1013300017F8A078122803D1A078314605F010F8EC
:10134000A078132803D1A078314605F009F8A078D9
:10135000142803D1A078314605F002F8A0781528AA
:1013600005D1A078314604F0FBFF01F0F7F800202A
:101370000B49087000BF19E69A9999999999B93F54
:1013800040040020FCA9F1D24D62503F70040020BF
:10139000A004002028040020580400208804002015
:1013A0005000002010B504463448007838B9AA2C03
:1013B00005D1012031490870314804705DE02F48A3
:1013C0000078012807D1AF2C05D102202B490870E5
:1013D0002B48447051E029480078022807D1F12CAD
:1013E00005DA0320254908702548847045E0234824
:1013F000007803280CD1322C0ADA04201F49087027
:101400001F48C4701F48047000201F49087034E052
:101410001A480078042819D11A480078002815DDE8
:1014200018480078401E1749087017480078164978
:101430000978491C144A1170001D11490C541148B7
:101440000078D0B905200D49087016E00B480078E7
:1014500005280FD10020094908700B480078001DAD
:1014600007490C5408480078401DC1B20448FFF7F2
:1014700087FD02E000200149087010BD54000020E3
:10148000C70300205200002053000020FEB50024B6
:101490000026002509E0404830F81500A0F5FA5074
:1014A00001A921F81500681CC5B2042DF3DB3B48E7
:1014B00090ED050ADFED3A0A20EE200ABCEEC00AE4
:1014C00010EE100A87B2AA222046611CCCB2354920
:1014D0000A542046611CCCB232490A5406222046E6
:1014E000611CCCB22F490A5400222046611CCCB2A8
:1014F0002C490A549DF805202046611CCCB229498C
:101500000A549DF804202046611CCCB225490A5497
:101510009DF807202046611CCCB222490A549DF850
:1015200006202046611CCCB21E490A549DF80920B1
:101530002046611CCCB21B490A549DF80820204665
:10154000611CCCB217490A549DF80B202046611C3F
:10155000CCB214490A549DF80A202046611CCCB232
:1015600010490A54201FC870002505E00D48405D51
:101570003044C6B2681CC5B2A542F7DB2046611CE8
:10158000CCB208490E540520074A2346009000209B
:1015900004F0CEFFFEBD0000E0010020400400206A
:1015A0000000C8429503002007B00640F8B50024AB
:1015B0000026AA222146641C574842542146641C36
:1015C000425403222146641C425400222146641CDA
:1015D0004254524842792146641C4F4842544F4875
:1015E00002792146641C4C4842544C48C279214639
:1015F000641C49484254494882792046611CCCB257
:1016000045490A544548C2782046611CCCB242493B
:101610000A54424882782046611CCCB23E490A54A2
:101620003E4842782046611CCCB23B490A543B48B4
:1016300002782046611CCCB237490A543748427AB6
:101640002046611CCCB234490A543448027A204600
:10165000611CCCB230490A543048C27A2046611C21
:10166000CCB22D490A542D48827A2046611CCCB256
:1016700029490A542948427B2046611CCCB226499C
:101680000A542648027B2046611CCCB222490A54E7
:101690002248C27B2046611CCCB21F490A541F4815
:1016A000827B2046611CCCB21B490A541B48C27B7A
:1016B0002046611CCCB218490A541848827B204647
:1016C000611CCCB214490A541448C27B2046611CE8
:1016D000CCB211490A541148827B2046611CCCB21D
:1016E0000D490A54201FC870002505E00A48405DD6
:1016F0003044C6B2681CC5B2A542F7DB2046611C67
:10170000CCB205490E540520054A2346009000201E
:1017100004F00EFFF8BD000095030020FA0300203E
:1017200007B00640F8B500240026AA222146641C12
:10173000504842542146641C425402222146641CF3
:10174000425400222146641C42544B4842782146B0
:10175000641C48484254484802782146641C454865
:1017600042544548C2782146641C4248425442488B
:1017700082782146601CC4B23E4842543E484279B9
:101780002046611CCCB23B490A543B4802792046B2
:10179000611CCCB237490A54384842782046611C53
:1017A000CCB234490A54354802782046611CCCB288
:1017B00030490A543148C2782046611CCCB22D49C8
:1017C0000A542E4882782046611CCCB229490A541A
:1017D0002A4842792146601CC4B226484254274810
:1017E00002792046611CCCB222490A54244842782E
:1017F0002046611CCCB21F490A5421480278204679
:10180000611CCCB21B490A541D48C2782046611C99
:10181000CCB218490A541A4882782046611CCCB2CE
:1018200014490A54164842792046611CCCB2114929
:101830000A54134802792146601CC4B20D48425430
:10184000201F0C49C870002505E00A48405D30445F
:10185000C6B2681CC5B2A542F7DB2046611CCCB2FB
:1018600004490E540520074A23460090002004F046
:101870005FFEF8BD95030020A0020020220000209A
:101880003A00002007B0064070B586B0002442F24E
:101890001070029000264B4890ED010ADFED4A0AD5
:1018A00020EE200ABDEEC00A10EE100A00B205902C
:1018B000444890ED000ADFED440A20EE200ABDEE18
:1018C000C00A10EE100A00B204903E4890ED020AE1
:1018D000DFED3D0A20EE200ABDEEC00A10EE100A30
:1018E00000B20390AA222146641C38484254214683
:1018F000641C425401222146641C425400222146A9
:10190000641C42549DF811202146641C42549DF8E9
:1019100010202146641C42549DF815202146641C69
:1019200042549DF814202046611CCCB227490A5429
:101930009DF80D202046611CCCB224490A549DF824
:101940000C202046611CCCB220490A549DF80B2083
:101950002046611CCCB21D490A549DF80A2020463D
:10196000611CCCB219490A549DF809202046611C1B
:10197000CCB216490A549DF808202046611CCCB20E
:1019800012490A5401222046611CCCB20F490A5464
:10199000201FC870002505E00C48405D3044C6B2E9
:1019A000681CC5B2A542F7DB2046611CCCB20749D2
:1019B0000E540520064A23460090002004F0B8FD8E
:1019C00006B070BDE00200200000C8429503002070
:1019D00007B0064003209C49096D01228240114056
:1019E00049B39949096D012282409143964A116594
:1019F000114649688AB295494A839549097CC1F3E1
:101A00008011A9B991494A8B898B8A4206DD8F4999
:101A10004A8B898B511A8F4A118109E08B49498B76
:101A20004FF6FF720A448949898B511A894A1181FC
:101A300086494A8B8A8304208349096D01228240AA
:101A4000114041B380490A6D012181408A437E499A
:101A50000A6549687D4A51807D49D0310978C1F3D2
:101A60000011A9B911464A8889888A4206DD77495A
:101A70004A888988511A774A518009E07349498810
:101A80004FF6FF720A4471498988511A714A518090
:101A90006E494A888A8005206B49096D012282407F
:101AA000114051B36849096D012282409143664A51
:101AB0001165114649688AB264490A816449D03186
:101AC0000978C1F34011A9B960490A8949898A4254
:101AD00006DD5E490A894989511A5E4A118009E08A
:101AE0005A4909894FF6FF720A4458494989511ADF
:101AF000584A118055490A894A8106205249096D80
:101B000001228240114051B34F49096D01228240A8
:101B100091434D4A1165114649688AB24B49CA81C1
:101B20004B49D0310978C1F38011A9B94749CA8915
:101B3000098A8A4206DD4549CA89098A511A454AF5
:101B4000918009E04149C9894FF6FF720A443F4933
:101B5000098A511A3F4A91803C49CA890A82072062
:101B60003949096D01228240114049B336490A6D55
:101B7000012181408A4334490A6549688AB2334960
:101B80008A823349D0310978C1F3C011A9B92F49EC
:101B90008A8AC98A8A4206DD2C498A8AC98A511AE8
:101BA0002C4AD18009E02949898A4FF6FF720A44FC
:101BB0002649C98A511A274AD18024498A8ACA8269
:101BC00024498988B1F5FA5F10DD2249898842F2FB
:101BD0006C0291420ADA1F490988914206DA1D49CE
:101BE0004988914202DA01211B4A117019498988FA
:101BF00042F20802914212DD1649898842F26C02D3
:101C000091420CDA1349098843F60812914206DD25
:101C100010494988914202DD0121104A11700D4995
:101C2000898842F26C0291420CDA0A490988914291
:101C300008DA0849498843F60812914202DD00217A
:101C4000054A1170704700000080034054030020D3
:101C500000F00F40FA030020550000201A00002079
:101C600070B504460D46164634B1012C6DD0022CD9
:101C700075D0032C74D1B0E0B448C06B40F08070D4
:101C8000B249C863082D5DD2DFE805F0040F1A25BC
:101C9000303B4651AE488068406820F4E06040F434
:101CA0008060AB49896848604DE0A94880688068D9
:101CB00020F4E06040F48060A5498968886042E0D3
:101CC000A3488068C06820F4E06040F48060A049C8
:101CD0008968C86037E09E480068806920F4E06049
:101CE00040F440709A49096888612CE09848C068BF
:101CF000006920F4E06040F480609549C96808619B
:101D000021E09348C068406920F4E06040F48060BE
:101D10008F49C968486116E08D48C068806920F421
:101D2000E06040F480608A49C96888610BE08848B7
:101D3000C068C06920F4E06040F480608449C968EC
:101D4000C86100E070BD00BF6CE08048C06B40F02F
:101D500000707E49C86325B1012D18D10CE019E04F
:101D60005FE07B480068006B20F4E06040F4407066
:101D70007749096808630BE075480068406B20F4F8
:101D8000E06040F4407072490968486300E0D9E7B8
:101D900000BF47E06D48006B40F080706B490863FE
:101DA00015B1012D16D10AE069484068806C20F415
:101DB000E06040F440706649496888640BE064481C
:101DC0004068C06C20F4E06040F4407060494968AD
:101DD000C86400E0B6E700BF24E05C48006B40F058
:101DE00000705A490863062D02D0072D16D10AE06B
:101DF00057480069C06A20F4E06040F4C06054496C
:101E00000969C8620BE052480069006B20F4E06089
:101E100040F4C0604E490969086300E092E700BFE2
:101E200000E000BF00BF26B1012E1FD0022E57D107
:101E300039E0484850F824000C3050F8350040F0A4
:101E40004401444850F824000C3040F83510414813
:101E500050F824000C3050F8350020F038013D488F
:101E600050F824000C3040F8351039E0394850F86B
:101E700024000C3050F8350040F04801354850F847
:101E800024000C3040F83510324850F824000C3053
:101E900050F8350020F034012E4850F824000C3062
:101EA00040F835101CE02B4850F824000C3050F856
:101EB000350040F04C01274850F824000C3040F821
:101EC0003510244850F824000C3050F8350020F02C
:101ED0003001204850F824000C3040F8351000BF85
:101EE00000BF0B201B4951F824100860194850F816
:101EF0002400406D40F00400164951F82410486554
:101F00000020144951F824104866124850F8240063
:101F1000406D20F001000F4951F824104865002061
:101F20000C4951F82410C8640A4951F82410086576
:101F3000032C05DA04F12A0148B201F0EEFD02E0BB
:101F4000472001F0EAFD00BFFCE6000000800440ED
:101F50006C000020240100202DE9F04114461D46AC
:101F6000DFF86CC4DCF800C04FF47A780CFB08FC96
:101F70004FEA5C064FEA164CBCFBF4F3002203E088
:101F800002F1010C0CF0FF0243FA02FCBCF1010F5C
:101F9000F6DAB4F57A7F03D202F1010C0CF0FF02FD
:101FA00026FA02FCBCFBF4FC1FFA8CF39C460CF1F5
:101FB000010C0CFB05FC44F62068BCFBF8FC1FFA86
:101FC0008CF730B101287CD002287BD003287AD14D
:101FD0000EE1DFF800C4DCF83CC04CF0807CDFF898
:101FE000F483C8F83CC008296ED2DFE801F004157C
:101FF000263748596E7FDFF8E0C3DCF808C0DCF80C
:1020000004C02CF4E06C4CF4806CDFF8CC83D8F87E
:102010000880C8F804C07CE0DFF8BCC3DCF808C066
:10202000DCF808C02CF4E06C4CF4806CDFF8A8837A
:10203000D8F80880C8F808C06BE0DFF89CC3DCF86B
:1020400008C0DCF80CC02CF4E06C4CF4806CDFF8B9
:102050008883D8F80880C8F80CC05AE0DFF878C345
:10206000DCF800C0DCF818C02CF4E06C4CF4407CC8
:10207000DFF86483D8F80080C8F818C049E0DFF8BA
:1020800058C3DCF80CC0DCF810C02CF4E06C4CF445
:10209000806CDFF84483D8F80C80C8F810C038E0B2
:1020A000DFF834C3DCF80CC0DCF814C02CF4E06CAE
:1020B0004CF4806CDFF82083D8F80C80C8F814C08A
:1020C00027E028E05AE031E121E0DFF80CC3DCF83A
:1020D0000CC0DCF818C02CF4E06C4CF4806CDFF819
:1020E000F882D8F80C80C8F818C012E0DFF8E8C20F
:1020F000DCF80CC0DCF81CC02CF4E06C4CF4806CF8
:10210000DFF8D482D8F80C80C8F81CC001E0BDE824
:10211000F08100BF0BE1DFF8BCC2DCF83CC04CF042
:10212000007CDFF8B082C8F83CC011B1012922D18F
:1021300010E0DFF8A4C2DCF800C0DCF830C02CF4FA
:10214000E06C4CF4407CDFF89082D8F80080C8F84E
:1021500030C011E0DFF880C2DCF800C0DCF834C029
:102160002CF4E06C4CF4407CDFF86C82D8F80080F2
:10217000C8F834C000E0CAE700BFD8E0DFF854C2B6
:10218000DCF83CC04CF0806CDFF84882C8F83CC0FA
:10219000C446DCF830C04CF0807CC8F830C011B1C7
:1021A000012922D110E0DFF830C2DCF804C0DCF8ED
:1021B00048C02CF4E06C4CF4407CDFF81C82D8F86A
:1021C0000480C8F848C011E0DFF80CC2DCF804C095
:1021D000DCF84CC02CF4E06C4CF4407CDFF8F88167
:1021E000D8F80480C8F84CC000E090E700BF9EE03B
:1021F000DFF8E0C1DCF830C04CF0007CDFF8D481BF
:10220000C8F830C008297CD2DFE801F00415263771
:1022100048596A7CDFF8C0C1DCF810C0DCF814C093
:102220002CF4E06C4CF4C06CDFF8AC81D8F8108072
:10223000C8F814C078E0DFF8A0C1DCF810C0DCF802
:1022400018C02CF4E06C4CF4C06CDFF88C81D8F82A
:102250001080C8F818C067E0DFF87CC1DCF810C057
:10226000DCF81CC02CF4E06C4CF4C06CDFF8688126
:10227000D8F81080C8F81CC056E0DFF85CC1DCF864
:1022800010C0DCF820C02CF4E06C4CF4C06CDFF81B
:102290004881D8F81080C8F820C045E0DFF838C180
:1022A000DCF810C0DCF824C02CF4E06C4CF4C06CFA
:1022B000DFF82481D8F81080C8F824C034E0DFF8B3
:1022C00018C1DCF810C0DCF828C02CF4E06C4CF429
:1022D000C06CDFF80481D8F81080C8F828C023E06B
:1022E000DFF8F4C0DCF810C0DCF82CC02CF4E06C93
:1022F0004CF4C06CDFF8E080D8F81080C8F82CC02F
:1023000012E010E0DFF8D0C0DCF810C0DCF830C01C
:102310002CF4E06C4CF4C06CDFF8BC80D8F8108072
:10232000C8F830C000E0F2E600BF00E000BF00BF28
:10233000DFF8A8C05CF820C00CF10C0C5CF831C0D0
:102340002CF00408DFF894C05CF820C00CF10C0CF1
:102350004CF831804FF02808DFF880C05CF820C0CE
:102360000CF10C0C4CF8318002F0070C4CF0280CEE
:10237000DFF8688058F82080C8F800C04FF0000CE3
:10238000DFF8588058F82080C8F84CC0DFF84CC0FF
:102390005CF820C0CCF808304FF0000CDFF83C802F
:1023A00058F82080C8F84CC0DFF830C05CF820C076
:1023B0000CF10C0C0CEBC10CCCF804704FF0000CC1
:1023C000DFF8188058F82080C8F804C000BF9EE6E7
:1023D0000C000020008004406C000020240100203C
:1023E0001CB5044600202D490870062269460120CC
:1023F00005F0A2FF9DF801009DF8001040EA0120C1
:1024000027490988401A00B220809DF803009DF8F2
:10241000021040EA012022494988401A00B2608037
:102420009DF805009DF8041040EA01201C498988A8
:10243000401A00B2A080B4F9000000EE100AB8EE15
:10244000C00ADFED180A20EE200ABDEEC00A10EE29
:10245000100A00B214490880B4F9020000EE100A14
:10246000B8EEC00ADFED0F0A20EE200ABDEEC00A6A
:1024700010EE100A00B24880B4F9040000EE100A11
:10248000B8EEC00ADFED070A20EE200ABDEEC00A52
:1024900010EE100A00B2888028461CBD7C01002086
:1024A0006801002058A08B3A6201002010B5014657
:1024B00000221E48006C20F400101C4B186403F02E
:1024C00041FF00242EE001F0800040B11748006C6D
:1024D00020F4800000F58000144B186405E01348D8
:1024E000006C20F48000114B18644806010E0F4860
:1024F000006C20F4001000F500100C4B186450061E
:10250000020E1846006DC0F3C050024303F01AFFDC
:102510000648006C20F40010044B186403F012FF0E
:10252000601CC4B2082CCEDB104610BD00F00F407A
:1025300010B500220121342005F002FB0022032106
:10254000372005F0FDFA01221146352005F0F8FA92
:1025500001221146362005F0F3FA10BD10B5002215
:102560000121402005F0ECFA0B48006820F0010042
:10257000401C09498039C1F880004FF4967005F07D
:1025800083FA00F01AF84FF410220021422005F0DF
:1025900097FA012010BD000080F00F4008B5002020
:1025A000009004E0BDF80000401C80B20090BDF82F
:1025B0000000B0F5FA7FF5DB08BD1CB5FFF7B8FFEA
:1025C000FFF7ECFF012269460C2005F0B5FE012261
:1025D00069460C2005F0B0FE9DF80000D72802D017
:1025E000002001901CBD0021132005F0D1FE8021A8
:1025F0000D2005F0CDFE0621142005F0C9FE0621B0
:10260000132005F0C5FE01200190EBE738B5054623
:102610000C46012269460D2000F06EF90122694640
:102620000D2000F069F9012269460D2000F064F9DF
:102630009DF80000C72806D0002084F820002876E6
:102640009DF8000038BD00212A2000F085F91F21E7
:102650005B2000F081F920215C2000F07DF9012150
:102660000E2000F079F902212B2000F075F90121EC
:102670002C2000F071F901212D2000F06DF92021AE
:102680000F2000F069F905212A2000F065F94FF4C8
:102690000050E8809FED080A85ED050A0A20A08217
:1026A000B2EE040A84ED070A9FED040A84ED060ADF
:1026B0009DF80000C6E7000000000039CDCCCC3DFD
:1026C0007FB505460E460C226946012000F014F93C
:1026D00000244FE06000401C1DF800001DF814109D
:1026E00040EA012000B225F814006000C01D1DF86A
:1026F00000106000801D1DF8000041EA002000B2BB
:1027000026F8140035F9140010F5004F05D135F8FE
:102710001400401C00B225F8140036F9140010F51E
:10272000004F05D136F81400401C00B226F8140002
:1027300035F9140000EE100AB8EEC00AD5ED050A0E
:1027400020EE200A05F1080000EB840080ED000A6D
:1027500036F9140000EE100AB8EEC00AD6ED060AEB
:1027600020EE200A06F1080000EB840080ED000A4C
:10277000601CC4B2022CADDD384604B070BD000050
:102780003FB5054600201D49087006226946012014
:1027900000F0B2F800242BE06000401C1DF800009F
:1027A000174931F81410401A1DF8141040EA01209E
:1027B00000B225F8140035F9140010F5004F05D1CA
:1027C00035F81400401C00B225F8140035F9140047
:1027D00000EE100AB8EEC00AD5ED050A20EE200A78
:1027E00005F1080000EB840080ED000A601CC4B213
:1027F000022CD1DD304604B030BD00003A0100208B
:102800000C0400203FB5054606226946332000F03F
:1028100073F8002429E06000C01D1DF8001060005E
:10282000801D1DF8000041EA002000B225F81400C8
:1028300035F9140010F5004F05D135F81400401C8F
:1028400000B225F8140035F9140000EE100AB8EEB5
:10285000C00AD5ED060A20EE200A05F1080000EBBB
:10286000840080ED000A601CC4B2022CD3DD304627
:1028700004B030BD10B5014600221E48006C20F4A3
:1028800000601C4B186400F0CBF800242EE001F02F
:10289000800040B11748006C20F4803000F5803093
:1028A000144B186405E01348006C20F48030114B81
:1028B00018644806010E0F48006C20F4006000F513
:1028C00000600C4B18645006020E1846006DC0F3F1
:1028D0004040024300F0A4F80648006C20F4006079
:1028E000044B186400F09CF8601CC4B2082CCEDBCA
:1028F000104610BD00F00F402DE9F04105460C4692
:10290000164605F07F081348006C20F480601149DA
:102910000864012000F092F84046FFF7ABFF28461C
:10292000FFF7A8FF002706E00020FFF7A3FF2070B5
:10293000641C781CC7B2B742F6DB012000F07EF8B9
:102940000448006C20F4806000F580600149086450
:10295000BDE8F08100F00F4070B504460D46104808
:10296000006C20F480600E490864012000F066F8D5
:1029700044F080063046FFF77DFF2046FFF77AFFE0
:102980002846FFF777FF012000F058F80448006C54
:1029900020F4806000F580600149086470BD00008B
:1029A00000F00F4010B5002201212A2005F0C8F8E0
:1029B00000220321312005F0C3F8012211462B200B
:1029C00005F0BEF801221146302005F0B9F810BD1F
:1029D00070B504460D4601221146272005F0B0F8D7
:1029E0000E48006C20F080000C4908644FF4FA7027
:1029F00000F024F84FF420220021282005F060F890
:102A00004FF420220021292005F05AF8FFF7CAFFD1
:102A100029462046FFF7FAFD012070BD00F00F4067
:102A200008B50020009004E0BDF80000401C80B212
:102A30000090BDF800000428F6DB08BD0CB50128A5
:102A400000DA01200021009110E00021019104E052
:102A5000BDF80410491C89B20191BDF80410142975
:102A6000F6DBBDF80010491C89B20091BDF80010DA
:102A70008142EADB0CBD00BFFEE70000F0B5044672
:102A80000D46174600222946204600F095F800BF63
:102A9000484850F82400C07800F002000028F7D021
:102AA000444850F82400C07840F00200414951F8F1
:102AB0002410C8703F4850F82400077100BF3D48FB
:102AC00050F82400C07800F002000028F7D0394800
:102AD00050F82400C07840F00200364951F8241024
:102AE000C870344850F82400807840F00400314920
:102AF00051F824108870012000EB45002D4951F851
:102B00002410087100BF2B4850F82400C07800F052
:102B100002000028F7D0274850F82400C07840F081
:102B20000200244951F82410C870224850F82400AB
:102B3000807820F010001F4951F8241088701D483B
:102B400050F82400807840F008001A4951F8241009
:102B50008870184850F82400067900BF154850F8CE
:102B60002400C07800F002000028F7D0114850F887
:102B70002400C07840F002000E4951F82410C870BB
:102B80000C4850F82400807820F02000094951F8C2
:102B900024108870074850F82400807820F0100036
:102BA000044951F824108870024850F8240006792E
:102BB0003046F0BD8400002010B542EA4103D9B28E
:102BC0000C4B53F820309B7843F01003094C54F819
:102BD0002040A370074B53F820309B7843F020032C
:102BE000044C54F82040A370024B53F82030197164
:102BF00010BD00008400002000B52DED108B89B0C1
:102C0000F0EE408AB0EE609AF0EE419AB0EE61BA12
:102C1000B0EE42AAF0EE62AAB5EEC0BAF1EE10FA3A
:102C200009D1B5EEC0AAF1EE10FA04D1F5EEC0AAB2
:102C3000F1EE10FA7DD06BEE0B0A4AEE0A0A4AEE6C
:102C4000AA0AB0EE600A04F0F3FFB0EE408AB0EEDC
:102C5000480A2BEE000AB0EE40BAB0EE480A2AEE5F
:102C6000000AB0EE40AAB0EE480A2AEE800AF0EE62
:102C700040AAF34890ED000AF248D0ED000A20EE99
:102C8000200AF148D0ED000AF04890ED001AF0EE6D
:102C900040DA40EEC1DAEC4890ED000AE848D0EDA9
:102CA000000A20EE200AE948D0ED000AE54890ED40
:102CB000001AB0EE40EA00EE81EAE348D0ED000AE7
:102CC00090ED001AB6EE000A10EE810ADD48D0ED54
:102CD000000A90ED001AF0EE40EA40EE81EA2AEE9A
:102CE0002E0AF0EE40BA4AEECEBA2AEEAD0AB0EEA7
:102CF00040FA0BEE6EFA2BEE0E0AF0EE40FA4AEEB8
:102D00006DFAF5EEC0BAF1EE10FA52D0F5EEC0BA97
:102D1000F1EE10FA4DD0F5EEC0BAF1EE10FA48D04F
:102D2000CB4890ED000AB5EEC00AF1EE10FA4FDD87
:102D300000E066E090ED000A60EE2B0AC54890EDD9
:102D4000000A9FEDC51A00EE810A80ED000AC04816
:102D500090ED000A60EE0F0AC04890ED000A9FED6A
:102D6000BE1A00EE810A80ED000AB94890ED000A13
:102D700060EE2F0ABA4890ED000A9FEDB71A00EEF8
:102D8000810A80ED000AB34890ED000A38EE800A0F
:102D9000F0EE408AB14890ED000A39EE000AB0EE3C
:102DA000409AAF4890ED000A39EE800AF0EE409A62
:102DB0000EE09FEDAC0AA74880ED000A9FEDA90A3E
:102DC000A64880ED000A9FEDA70AA54880ED000AFD
:102DD000A548D0ED000AB0EE680A00EEAB0AF0EEAE
:102DE000408AD0ED000AB0EE490A00EE8F0AB0EE3C
:102DF000409AD0ED000AB0EE690A00EEAF0AF0EE9C
:102E0000409A9FED9A0A28EE800AF0EE408A9FEDE4
:102E1000970A29EE000AB0EE409A9FED940A29EE37
:102E2000800AF0EE409A884890ED00CA8448D0EDC0
:102E300000CA864890ED00DAB1EE6C0A20EE280A4E
:102E40000DEE490A7F48D0ED000A00EEE90A7E48FF
:102E5000D0ED000A30EE200A80ED000A2CEE280AA0
:102E60000DEE290A7748D0ED000A00EEC90A744831
:102E7000D0ED000A30EE200A80ED000A2CEE090A9F
:102E80000CEEE90A6F48D0ED000A00EEA80A6F4880
:102E9000D0ED000A30EE200A80ED000A2CEE290A5F
:102EA0000CEE890A0DEE680A6648D0ED000A30EE95
:102EB000200A80ED000A6448D0ED000A60EEA00A06
:102EC0005F4890ED001AD0ED001A41EE210A5F48EC
:102ED00090ED001AD0ED001A41EE210A594890ED0C
:102EE000001AD0ED001A41EE210AB0EE600A04F09B
:102EF0009FFEB0EE408A544890ED000A20EE080A8A
:102F000080ED000A4E4890ED000A20EE080A80EDA0
:102F1000000A4E4890ED000A20EE080A80ED000AF3
:102F2000484890ED000A20EE080A80ED000A444867
:102F300090ED000A20EE000A4448D0ED000A90ED22
:102F4000001A00EE810AF7EE000AB0EE001A41EE18
:102F5000400A10EE901A084606F0C4FACDE90201C4
:102F6000394890ED000A3648D0ED000A20EE200ADC
:102F70003648D0ED000A334890ED001A00EE810A81
:102F8000F0EE000A20EE200A10EE101A084606F0B5
:102F9000A9FACDE900019DED021B9DED000B03F0A8
:102FA00067FE8DED040B9FED320B53EC102B9DED66
:102FB000040B51EC100B05F0D5FFCDE906019DED9A
:102FC000060B51EC100B05F055FD2B4908601C4811
:102FD00090ED000A1B48D0ED000A20EE200A1A48A6
:102FE000D0ED000A194890ED001A00EEC10AF0EE8B
:102FF000000A20EE200A10EE101A084606F072FAB7
:10300000CDE902019DED020B03F016FB8DED040BE3
:103010009FED170B53EC102B9DED040B51EC100B97
:1030200005F0A0FFCDE906019DED060B51EC100B5C
:1030300005F020FD1149086009B0BDEC108B00BD02
:103040001802002020020020140200201C02002090
:10305000380200203C0200200AD7233B4002002017
:103060004402002000000000340200200AD7A33AE6
:103070000000006066A64C400C0200200802002000
:1030800000B52DED108B89B0B0EE40BAF0EE60BA0D
:10309000B0EE418AF0EE618AB0EE429AF0EE629AAA
:1030A0008DED069B8DED048B314890ED000BB0EE5D
:1030B00040CAF0EE60CA90ED000BB0EE40CAF0EEF0
:1030C00060CA9DED048B53EC182B2A4890ED000B41
:1030D00051EC100B05F000FD41EC1A0B9DED069B29
:1030E00053EC192B51EC1A0B05F0F6FC41EC1F0BBD
:1030F00053EC1F2B51EC1A0B05F096FD41EC1E0B07
:1031000053EC1C2B51EC1B0B06F002F941EC1F0B8E
:1031100053EC1E2B05F026FF53EC1C2BCDE90001D0
:103120009DED000B51EC100B05F0D6FC41EC1D0B96
:1031300053EC1E2B9FED100B51EC100B06F0E8F832
:1031400041EC1F0B53EC1A2B05F00CFFCDE90201EB
:103150009DED020B074880ED000B054880ED00DB7C
:10316000B0EE4D0AF0EE6D0A09B0BDEC108B00BD5B
:103170004802002050020020000000000000F03F44
:1031800000B52DED108B89B0B0EE40BAF0EE60BA0C
:10319000B0EE418AF0EE618AB0EE429AF0EE629AA9
:1031A0008DED069B8DED048B314890ED000BB0EE5C
:1031B00040CAF0EE60CA90ED000BB0EE40CAF0EEEF
:1031C00060CA9DED048B53EC182B2A4890ED000B40
:1031D00051EC100B05F080FC41EC1A0B9DED069BA9
:1031E00053EC192B51EC1A0B05F076FC41EC1F0B3C
:1031F00053EC1F2B51EC1A0B05F016FD41EC1E0B86
:1032000053EC1C2B51EC1B0B06F082F841EC1F0B0E
:1032100053EC1E2B05F0A6FE53EC1C2BCDE9000150
:103220009DED000B51EC100B05F056FC41EC1D0B15
:1032300053EC1E2B9FED100B51EC100B06F068F8B1
:1032400041EC1F0B53EC1A2B05F08CFECDE902016B
:103250009DED020B074880ED000B054880ED00DB7B
:10326000B0EE4D0AF0EE6D0A09B0BDEC108B00BD5A
:103270005802002060020020000000000000F03F23
:1032800000B52DED108B89B0B0EE40BAF0EE60BA0B
:10329000B0EE418AF0EE618AB0EE429AF0EE629AA8
:1032A0008DED069B8DED048B314890ED000BB0EE5B
:1032B00040CAF0EE60CA90ED000BB0EE40CAF0EEEE
:1032C00060CA9DED048B53EC182B2A4890ED000B3F
:1032D00051EC100B05F000FC41EC1A0B9DED069B28
:1032E00053EC192B51EC1A0B05F0F6FB41EC1F0BBC
:1032F00053EC1F2B51EC1A0B05F096FC41EC1E0B06
:1033000053EC1C2B51EC1B0B06F002F841EC1F0B8D
:1033100053EC1E2B05F026FE53EC1C2BCDE90001CF
:103320009DED000B51EC100B05F0D6FB41EC1D0B95
:1033300053EC1E2B9FED100B51EC100B05F0E8FF2A
:1033400041EC1F0B53EC1A2B05F00CFECDE90201EA
:103350009DED020B074880ED000B054880ED00DB7A
:10336000B0EE4D0AF0EE6D0A09B0BDEC108B00BD59
:103370006802002070020020000000000000F03F02
:1033800030B502460C4C647904F01F041834250152
:10339000094C247904F01F04641CB5FBF4F04FF4CD
:1033A0007A746043054C646CC4F30364641CB0FB22
:1033B000F4F310600B6030BD004006400080044014
:1033C00010B52DED088BB0EE40AAF0EE60AAB0EE7D
:1033D000419A4B48C0ED00AA90ED000AB5EEC00A34
:1033E000F1EE10FA04D8B0EE490ABDEC088B10BD1E
:1033F000434890ED000ACAEE00BA9FED420A03F07E
:1034000015FEB0EE408A9FED400A03F029FDF0EE74
:10341000000A60EE200AB7EE000A00EE880AF0EE1D
:10342000408A48EE088A28EE080AC0EE280A374883
:10343000C0ED000A90ED000AF0EE000A20EE200A2E
:10344000334880ED000A314890ED000A314880EDA4
:10345000000AB7EE000A18EE080AF0EE000A20EEA5
:10346000200AC0EE280A2C48C0ED000A9FED260A6B
:1034700003F0F6FCF0EE000A60EE200AB7EE000A58
:1034800000EEC80A08EE080AC0EE280A2348C0ED7C
:10349000000AB0EE490A2248D0ED000A1E4890ED1D
:1034A000001A00EEC10A1F48D0ED000A1B4890ED3B
:1034B000001AF0EE409A40EEC19A144890ED000ACE
:1034C00029EE800A1648D0ED000A114890ED001A46
:1034D00000EE810A1348D0ED000A0E4890ED001A64
:1034E00000EE810AB0EE40BA0D4890ED000A0D489A
:1034F00080ED000A0A48C0ED009AB0EE4B0A74E76E
:1035000080010020CDCC4C3DDB0F493F84010020E1
:10351000880100208C0100209001002094010020EF
:10352000980100209C01002010B52DED088BB0EE15
:1035300040AAF0EE60AAB0EE419A4B48C0ED00AA56
:1035400090ED000AB5EEC00AF1EE10FA04D8B0EE24
:10355000490ABDEC088B10BD434890ED000ACAEE45
:1035600000BA9FED420A03F061FDB0EE408A9FED84
:10357000400A03F075FCF0EE000A60EE200AB7EE98
:10358000000A00EE880AF0EE408A48EE088A28EE2B
:10359000080AC0EE280A3748C0ED000A90ED000A7C
:1035A000F0EE000A20EE200A334880ED000A314890
:1035B00090ED000A314880ED000AB7EE000A18EEDF
:1035C000080AF0EE000A20EE200AC0EE280A2C4875
:1035D000C0ED000A9FED260A03F042FCF0EE000A5F
:1035E00060EE200AB7EE000A00EEC80A08EE080AEC
:1035F000C0EE280A2348C0ED000AB0EE490A22486E
:10360000D0ED000A1E4890ED001A00EEC10A1F48D6
:10361000D0ED000A1B4890ED001AF0EE409A40EE03
:10362000C19A144890ED000A29EE800A1648D0EDA0
:10363000000A114890ED001A00EE810A1348D0EDFF
:10364000000A0E4890ED001A00EE810AB0EE40BA72
:103650000D4890ED000A0D4880ED000A0A48C0EDC3
:10366000009AB0EE4B0A74E7A0010020CDCC4C3D8F
:10367000DB0F493FA4010020A8010020AC0100207D
:10368000B0010020B4010020B8010020BC010020DE
:1036900010B52DED088BB0EE40AAF0EE60AAB0EEAA
:1036A000419A4B48C0ED00AA90ED000AB5EEC00A61
:1036B000F1EE10FA04D8B0EE490ABDEC088B10BD4B
:1036C000434890ED000ACAEE00BA9FED420A03F0AB
:1036D000ADFCB0EE408A9FED400A03F0C1FBF0EE76
:1036E000000A60EE200AB7EE000A00EE880AF0EE4B
:1036F000408A48EE088A28EE080AC0EE280A3748B1
:10370000C0ED000A90ED000AF0EE000A20EE200A5B
:10371000334880ED000A314890ED000A314880EDD1
:10372000000AB7EE000A18EE080AF0EE000A20EED2
:10373000200AC0EE280A2C48C0ED000A9FED260A98
:1037400003F08EFBF0EE000A60EE200AB7EE000AEE
:1037500000EEC80A08EE080AC0EE280A2348C0EDA9
:10376000000AB0EE490A2248D0ED000A1E4890ED4A
:10377000001A00EEC10A1F48D0ED000A1B4890ED68
:10378000001AF0EE409A40EEC19A144890ED000AFB
:1037900029EE800A1648D0ED000A114890ED001A73
:1037A00000EE810A1348D0ED000A0E4890ED001A91
:1037B00000EE810AB0EE40BA0D4890ED000A0D48C7
:1037C00080ED000A0A48C0ED009AB0EE4B0A74E79B
:1037D000C0010020CDCC4C3DDB0F493FC40100208F
:1037E000C8010020CC010020D0010020D40100201D
:1037F000D8010020DC01002070B50446002026E03E
:1038000034F9105033F91060B5420CDA33F8105027
:1038100024F8105034F9105031F9106035446D100F
:1038200022F8105011E031F9105033F91060B54210
:103830000BDD33F8105021F8105034F9105031F9E5
:10384000106035446D1022F81050451CE8B2032872
:10385000D6DB70BDF0B52DED068B81B005460E466A
:1038600014460020009012E0BDF8000036F8100069
:10387000BDF8001035F81110401A00B2BDF8001064
:1038800024F81100BDF80000401C80B20090BDF883
:1038900000000328E8DBB4F90000002874DDB4F967
:1038A0000200002833DBB4F9020000EE100AF8EE43
:1038B000C00AB4F9000000EE100AB8EEC00A80EEAB
:1038C000801A11EE107A384605F00CFE41EC1A0B06
:1038D000B0EE4A0AF0EE6A0A03F05EF8B0EE409AE3
:1038E000F0EE609A51EC190B05F0C4F808EE100ADE
:1038F0009FED660A28EE000ADFED650A80EE201AC9
:10390000BCEEC10A10EE100A80B20090B7E06088E9
:10391000404200B26080B4F9020000EE100AF8EEF6
:10392000C00AB4F9000000EE100AB8EEC00A80EE3A
:10393000801A11EE107A384605F0D4FD41EC1A0BCE
:10394000B0EE4A0AF0EE6A0A03F026F8B0EE409AAA
:10395000F0EE609A51EC190B05F08CF808EE100AA5
:103960009FED4A0A68EE000A9FED491A80EE810A2F
:10397000DFED480A30EEC00ABCEEC00A10EE100AB5
:1039800080B200907BE0FFE7B4F90000002876DA0F
:10399000B4F90200002837DCB4F9020000EE100A86
:1039A000F8EEC00AB4F9000000EE100AB8EEC00A42
:1039B00080EE801A11EE107A384605F093FD41EC46
:1039C0001A0BB0EE4A0AF0EE6A0A02F0E5FFB0EE1A
:1039D000409AF0EE609A51EC190B05F04BF808EEA6
:1039E000100A9FED2A0A68EE000A9FED291A80EE60
:1039F000810ADFED260A30EE200ABCEEC00A10EE86
:103A0000100A80B200903AE02088404200B2208044
:103A1000B4F9020000EE100AF8EEC00AB4F9000092
:103A200000EE100AB8EEC00A80EE801A11EE107A8D
:103A3000384605F057FD41EC1A0BB0EE4A0AF0EE9D
:103A40006A0A02F0A9FFB0EE409AF0EE609A51ECDB
:103A5000190B05F00FF808EE100A9FED0C0A28EE7E
:103A6000000A9FED0B1AC0EE010A9FED080A30EE26
:103A7000600ABCEEC00A10EE100A80B20090BDF8D9
:103A8000000001B0BDEC068BF0BD00000000344327
:103A9000C3F548400000B44310B50246002015E0CD
:103AA0000C4B33F9103003EBC30332F910402344BD
:103AB0000A2493FBF4F31BB2064C24F8103023467F
:103AC00033F8103021F81030431CD8B20328E7DB5C
:103AD00010BD00004801002000F01F0201219140AC
:103AE0004209920002F1E022C2F80011704700F092
:103AF0001F02012191404209920002F1E022C2F826
:103B00000011704700F01F0201219140420992000C
:103B100002F1E022C2F80011704700F01F020121FB
:103B200091404209920002F1E022C2F80011704770
:103B300010B5002807DA0A07140E054A00F00F0333
:103B40001B1FD45403E00A07130E024A135410BD7E
:103B500018ED00E000E400E03148006840F00101A9
:103B60002F4801602F480068401C2E4908602E48ED
:103B70000078401C2C49087001202C4908702A4804
:103B80000078022805D10020274908700120284923
:103B90000870244800680521B0FBF1F201FB120017
:103BA00010B90120234908701E4800680A21B0FBA3
:103BB000F1F201FB120010B901201F4908701948E9
:103BC00000681421B0FBF1F201FB120010B90120D2
:103BD0001A490870134800683221B0FBF1F201FB6A
:103BE000120010B90120164908700E4800685021D3
:103BF000B0FBF1F201FB120010B90120114908706D
:103C0000084800686421B0FBF1F201FB120028B9FA
:103C100001200D490870002002490860704700002B
:103C20000C7103404C0000205100002010000020C7
:103C300012000020130000201400002015000020B6
:103C4000160000201700002018000020034800681C
:103C500040F0010101480160704700001C71034001
:103C60001CB5002408242B4800680121A14008400D
:103C700040B1284800680121A14008432549A039E6
:103C8000C1F8A0000924234800680121A140084090
:103C900000283DD01F4800680121A14008431D496C
:103CA000A039C1F8A000012201A90020FEF724FEDE
:103CB000012269463220FEF71FFE9DF8040000F045
:103CC000080070B19DF8000000F0080048B11249EA
:103CD0001248FEF7F5FC01201149087011490870DF
:103CE00016E09DF8040000F0080030B101200C49F6
:103CF00008700A48FEF744FD0AE09DF8000000F055
:103D0000080028B10120074908700348FEF77AFD32
:103D10001CBD0000A0A00440BC02002084020020C2
:103D2000380100203901002038B50024012416484C
:103D300000680121A140084040B1134800680121FA
:103D4000A14008431049A039C1F8A00002240E4840
:103D500000680121A1400840A0B10B480168012082
:103D6000A04001430848A038C0F8A01001226946CD
:103D70000B2004F0E1FA9DF8000018B100BF0348E1
:103D8000FEF72EFB38BD0000A0B004401C00002050
:103D900070B500251B250D4800680121A940084089
:103DA00098B10A4800680121A94008430749A03991
:103DB000C1F8A000122260210020FEF75FFE044639
:103DC00004F0800008B104F001FA70BDA0D00440F6
:103DD00010B5FE48808842F23411884242F32682B0
:103DE000FB480078012842F02182F848808843F29D
:103DF000B061884202DD0846F4498880F54890EDBC
:103E0000050ADFEDF50AB4EEE00AF1EE10FA02DD84
:103E10009FEDF10A0FE0EF4890ED050ADFEDEF0AA4
:103E2000B4EEE00AF1EE10FA02D29FEDEC0A02E0E5
:103E3000E84890ED050AEA48D0ED050A9FEDE61A3C
:103E4000F4EEC10AF1EE10FA02DDDFEDE30A0FE055
:103E5000E348D0ED050A9FEDE11AF4EEC10AF1EE58
:103E600010FA02D2DFEDDD0A02E0DD48D0ED050AEE
:103E700070EE600ADB4890ED050A9FEDD71AB4EEAC
:103E8000C10AF1EE10FA02DD9FEDD30A0FE0D5482A
:103E900090ED050A9FEDD11AB4EEC10AF1EE10FAC9
:103EA00002D29FEDCE0A02E0CE4890ED050A30EE38
:103EB000800AF2EE000A60EE200AC4488088A0F56D
:103EC00000503F3800EE100AB8EEC00AB6EE001AF5
:103ED00020EE010AF4EEC00AF1EE10FA0DDDBB4847
:103EE0008088A0F500503F3800EE100AB8EEC00AF6
:103EF000F6EE000A20EE200ADBE0B64890ED050A57
:103F0000DFEDB50AB4EEE00AF1EE10FA02DD9FED46
:103F1000B20A0FE0AF4890ED050ADFEDB00AB4EE4B
:103F2000E00AF1EE10FA02D29FEDAC0A02E0A948D5
:103F300090ED050AAA48D0ED050A9FEDA71AF4EE08
:103F4000C10AF1EE10FA02DDDFEDA30A0FE0A4488A
:103F5000D0ED050A9FEDA11AF4EEC10AF1EE10FAB8
:103F600002D2DFED9E0A02E09D48D0ED050A70EE18
:103F7000600A9C4890ED050A9FED971AB4EEC10ABD
:103F8000F1EE10FA02DD9FED940A0FE0954890EDF6
:103F9000050A9FED921AB4EEC10AF1EE10FA02D2B0
:103FA0009FED8E0A02E08F4890ED050A30EE800A00
:103FB000F2EE000A60EE200A8448808842F23F0157
:103FC000081A00EE100AB8EEC00AB6EE001A20EE8B
:103FD000010AF4EEC00AF1EE10FA0BD27B48808899
:103FE000401A00EE100AB8EEC00AF6EE000A20EE03
:103FF000600A5EE0774890ED050ADFED770AB4EEDF
:10400000E00AF1EE10FA02DD9FED730A0FE071484D
:1040100090ED050ADFED710AB4EEE00AF1EE10FA58
:1040200002D29FED6E0A02E06A4890ED050A6C48E4
:10403000D0ED050A9FED681AF4EEC10AF1EE10FA10
:1040400002DDDFED650A0FE06548D0ED050A9FED62
:10405000631AF4EEC10AF1EE10FA02D2DFED5F0A44
:1040600002E05F48D0ED050A70EE600A5D4890ED11
:10407000050A9FED591AB4EEC10AF1EE10FA02DDFD
:104080009FED550A0FE0574890ED050A9FED531A32
:10409000B4EEC10AF1EE10FA02D29FED500A02E02E
:1040A000504890ED050A30EE800AF2EE000A20EE4C
:1040B000200A46488088A0F500503F3800EE900A5C
:1040C000F8EEE00A9FED481A00EE810ADFED470A9C
:1040D00030EE200ADFED460AB4EEE00AF1EE10FA07
:1040E00002D29FED430A02E33A4890ED050ADFED64
:1040F0003A0AB4EEE00AF1EE10FA02DD9FED360A5C
:104100000FE0344890ED050ADFED340AB4EEE00A22
:10411000F1EE10FA02D29FED310A02E02D4890ED47
:10412000050A2F48D0ED050A9FED2B1AF4EEC10ABF
:10413000F1EE10FA02DDDFED280A0FE02848D0ED9D
:10414000050A9FED261AF4EEC10AF1EE10FA02D22A
:10415000DFED220A02E02248D0ED050A70EE600A87
:10416000204890ED050A9FED1C1AB4EEC10AF1EE4D
:1041700010FA02DD9FED180A0FE01A4890ED050ACB
:104180009FED161AB4EEC10AF1EE10FA02D29FEDBD
:10419000130A02E0134890ED050A30EE800AF2EEB1
:1041A000000A60EE200A09488088A0F500503F38D8
:1041B00000EE100AB8EEC00AB6EE001A20EE010AB0
:1041C000F4EEC00AF1EE10FA22DD13E0FA0300204B
:1041D000550000202804002000004843000048C388
:1041E00058040020880400206666A63F0000FA45B7
:1041F00000A00C46FE488088A0F500503F3800EE35
:10420000100AB8EEC00AF6EE000A20EE200ADBE043
:10421000F84890ED050A5FED100AB4EEE00AF1EE01
:1042200010FA02DD1FED140A0FE0F24890ED050AC6
:104230005FED160AB4EEE00AF1EE10FA02D21FEDBD
:10424000190A02E0EB4890ED050AEB48D0ED050AAB
:104250001FED1F1AF4EEC10AF1EE10FA02DD5FED58
:10426000220A0FE0E448D0ED050A1FED241AF4EE0F
:10427000C10AF1EE10FA02D25FED280A02E0DE4830
:10428000D0ED050A70EE600ADC4890ED050A1FEDDE
:104290002E1AB4EEC10AF1EE10FA02DD1FED320A59
:1042A0000FE0D64890ED050A1FED341AB4EEC10AAE
:1042B000F1EE10FA02D21FED370A02E0CF4890ED7E
:1042C000050A30EE800AF2EE000A60EE200AC848C5
:1042D000808842F23F01081A00EE100AB8EEC00AC8
:1042E000B6EE001A20EE010AF4EEC00AF1EE10FA62
:1042F0000BD2BF488088401A00EE100AB8EEC00A00
:10430000F6EE000A20EE600A5EE0BA4890ED050A7B
:104310005FED4F0AB4EEE00AF1EE10FA02DD1FED98
:10432000520A0FE0B34890ED050A5FED540AB4EE6F
:10433000E00AF1EE10FA02D21FED580A02E0AD4891
:1043400090ED050AAC48D0ED050A1FED5D1AF4EEBC
:10435000C10AF1EE10FA02DD5FED610A0FE0A64836
:10436000D0ED050A1FED631AF4EEC10AF1EE10FA62
:1043700002D25FED660A02E09F48D0ED050A70EEBA
:10438000600A9E4890ED050A1FED6D1AB4EEC10A51
:10439000F1EE10FA02DD1FED700A0FE0974890ED84
:1043A000050A1FED721AB4EEC10AF1EE10FA02D23C
:1043B0001FED760A02E0914890ED050A30EE800A82
:1043C000F2EE000A20EE200A89488088A0F500500D
:1043D0003F3800EE900AF8EEE00A1FED7D1A00EE7D
:1043E000810A5FED7E0A30EE200ADFED850AB4EE29
:1043F000E00AF1EE10FA02DD9FED810A77E17D48D7
:1044000090ED050A5FED8C0AB4EEE00AF1EE10FAC9
:1044100002DD1FED8F0A0FE0764890ED050A5FED93
:10442000910AB4EEE00AF1EE10FA02D21FED950AFD
:1044300002E0704890ED050A6F48D0ED050A1FEDC7
:104440009A1AF4EEC10AF1EE10FA02DD5FED9E0A4F
:104450000FE06948D0ED050A1FEDA01AF4EEC10A7D
:10446000F1EE10FA02D25FEDA30A02E06248D0ED4D
:10447000050A70EE600A614890ED050A1FEDAA1A60
:10448000B4EEC10AF1EE10FA02DD1FEDAD0A0FE045
:104490005A4890ED050A1FEDAF1AB4EEC10AF1EECD
:1044A00010FA02D21FEDB30A02E0544890ED050A5B
:1044B00030EE800AF2EE000A60EE200A4C48808856
:1044C000A0F500503F3800EE100AB8EEC00AB6EE74
:1044D000001A20EE010AF4EEC00AF1EE10FA0DDD2A
:1044E00043488088A0F500503F3800EE100AB8EE2F
:1044F000C00AF6EE000A20EE200AE7E03D4890ED03
:10450000050A5FEDCB0AB4EEE00AF1EE10FA02DD27
:104510001FEDCF0A0FE0374890ED050A5FEDD10A95
:10452000B4EEE00AF1EE10FA02D21FEDD40A02E076
:10453000304890ED050A3048D0ED050A1FEDDA1A33
:10454000F4EEC10AF1EE10FA02DD5FEDDD0A0FE0D4
:104550002948D0ED050A1FEDDF1AF4EEC10AF1EE8D
:1045600010FA02D25FEDE30A02E02348D0ED050A1B
:1045700070EE600A214890ED050A1FEDE91AB4EECD
:10458000C10AF1EE10FA02DD1FEDED0A0FE01B4843
:1045900090ED050A1FEDEF1AB4EEC10AF1EE10FA24
:1045A00002D21FEDF20A02E0144890ED050A30EE47
:1045B000800AF2EE000A60EE200A0D48808842F27E
:1045C0003F01081A00EE100AB8EEC00AB6EE001A53
:1045D00020EE010AF4EEC00AF1EE10FA17D20448F8
:1045E0008088401A00EE100AB8EEC00A0AE0000007
:1045F000FA0300202804002058040020880400202A
:1046000000007A46F6EE000A20EE600A5EE0FC4802
:1046100090ED050ADFEDFB0AB4EEE00AF1EE10FAC8
:1046200002DD9FEDF80A0FE0F54890ED050ADFED99
:10463000F60AB4EEE00AF1EE10FA02D29FEDF20AA9
:1046400002E0EF4890ED050AF048D0ED050A9FED35
:10465000ED1AF4EEC10AF1EE10FA02DDDFEDE90A1F
:104660000FE0EA48D0ED050A9FEDE71AF4EEC10A23
:10467000F1EE10FA02D2DFEDE40A02E0E348D0EDF9
:10468000050A70EE600AE24890ED050A9FEDDD1A1A
:10469000B4EEC10AF1EE10FA02DD9FEDDA0A0FE086
:1046A000DB4890ED050A9FEDD81AB4EEC10AF1EE91
:1046B00010FA02D29FEDD40A02E0D54890ED050A27
:1046C00030EE800AF2EE000A20EE200AD1488088FF
:1046D000A0F500503F3800EE900AF8EEE00A9FED9A
:1046E000CE1A00EE810ADFEDCD0A30EE200ABCEED4
:1046F000C00A10EE100ACA490880C14890ED050AA8
:10470000DFEDC00AB4EEE00AF1EE10FA02DD9FED33
:10471000BD0A0FE0BA4890ED050ADFEDBB0AB4EE22
:10472000E00AF1EE10FA02D29FEDB70A02E0B448B7
:1047300090ED050AB548D0ED050A9FEDB21AF4EEEA
:10474000C10AF1EE10FA02DDDFEDAE0A0FE0AF486C
:10475000D0ED050A9FEDAC1AF4EEC10AF1EE10FAA5
:1047600002D2DFEDA90A02E0A848D0ED050A70EEFA
:10477000200AA74890ED050A9FEDA21AB4EEC10ADF
:10478000F1EE10FA02DD9FED9F0A0FE0A04890EDD8
:10479000050A9FED9D1AB4EEC10AF1EE10FA02D29D
:1047A0009FED990A02E09A4890ED050A30EEC00AA2
:1047B000F2EE000A60EE200A96488088A0F50050CC
:1047C0003F3800EE100AB8EEC00AB6EE001A20EE2E
:1047D000010AF4EEC00AF1EE10FA0DDD8D48808872
:1047E000A0F500503F3800EE100AB8EEC00AF6EE11
:1047F000000A20EE200ADBE0814890ED050ADFED9B
:10480000810AB4EEE00AF1EE10FA02DD9FED7D0AB6
:104810000FE07B4890ED050ADFED7B0AB4EEE00A7D
:10482000F1EE10FA02D29FED780A02E0744890EDA2
:10483000050A7648D0ED050A9FED721AF4EEC10A1A
:10484000F1EE10FA02DDDFED6F0A0FE06F48D0EDF8
:10485000050A9FED6D1AF4EEC10AF1EE10FA02D2CC
:10486000DFED690A02E06948D0ED050A70EE200A22
:10487000674890ED050A9FED631AB4EEC10AF1EEA8
:1048800010FA02DD9FED5F0A0FE0614890ED050A26
:104890009FED5D1AB4EEC10AF1EE10FA02D29FED5F
:1048A0005A0A02E05A4890ED050A30EEC00AF2EECC
:1048B000000A60EE200A5748808842F23F01081A39
:1048C00000EE100AB8EEC00AB6EE001A20EE010A99
:1048D000F4EEC00AF1EE10FA0BD24E488088401A6E
:1048E00000EE100AB8EEC00AF6EE000A20EE600AEA
:1048F0005EE0434890ED050ADFED420AB4EEE00ABF
:10490000F1EE10FA02DD9FED3F0A0FE03C4890ED1A
:10491000050ADFED3D0AB4EEE00AF1EE10FA02D22C
:104920009FED390A02E0364890ED050A3748D0ED90
:10493000050A9FED341AF4EEC10AF1EE10FA02DD19
:10494000DFED300A0FE03148D0ED050A9FED2E1A59
:10495000F4EEC10AF1EE10FA02D2DFED2B0A02E00A
:104960002A48D0ED050A70EE200A294890ED050A84
:104970009FED241AB4EEC10AF1EE10FA02DD9FEDAC
:10498000210A0FE0224890ED050A9FED1F1AB4EEB0
:10499000C10AF1EE10FA02D29FED1B0A02E01C4898
:1049A00090ED050A30EEC00AF2EE000A20EE200A71
:1049B00018488088A0F500503F3800EE900AF8EEC5
:1049C000E00A9FED151A00EE810ADFED140A30EEC1
:1049D000200ADFED140AB4EEE00AF1EE10FA02D27A
:1049E0009FED100A02E3064890ED050ADFED050A87
:1049F000B4EEE00AF1EE10FA16DD9FED020A23E0B4
:104A00002804002000004843000048C35804002048
:104A100088040020FA0300206666A63F0000FA45DD
:104A2000E001002000A00C46FA4890ED050A5FED79
:104A30000A0AB4EEE00AF1EE10FA02D21FED0E0AF5
:104A400002E0F44890ED050AF348D0ED050A1FEDA9
:104A5000131AF4EEC10AF1EE10FA02DD5FED170A47
:104A60000FE0ED48D0ED050A1FED191AF4EEC10A6A
:104A7000F1EE10FA02D25FED1C0A02E0E648D0ED3A
:104A8000050A70EE200AE54890ED050A1FED231A8D
:104A9000B4EEC10AF1EE10FA02DD1FED260A0FE0B6
:104AA000DE4890ED050A1FED281AB4EEC10AF1EEBA
:104AB00010FA02D21FED2C0A02E0D84890ED050A48
:104AC00030EEC00AF2EE000A60EE200AD448808878
:104AD000A0F500503F3800EE100AB8EEC00AB6EE5E
:104AE000001A20EE010AF4EEC00AF1EE10FA0DDD14
:104AF000CB488088A0F500503F3800EE100AB8EE91
:104B0000C00AF6EE000A20EE200ADBE0C14890ED74
:104B1000050A5FED440AB4EEE00AF1EE10FA02DD98
:104B20001FED480A0FE0BB4890ED050A5FED4A0A09
:104B3000B4EEE00AF1EE10FA02D21FED4D0A02E0E7
:104B4000B44890ED050AB448D0ED050A1FED531A9C
:104B5000F4EEC10AF1EE10FA02DD5FED560A0FE045
:104B6000AD48D0ED050A1FED581AF4EEC10AF1EE7A
:104B700010FA02D25FED5C0A02E0A748D0ED050A08
:104B800070EE200AA54890ED050A1FED621AB4EEFA
:104B9000C10AF1EE10FA02DD1FED660A0FE09F4830
:104BA00090ED050A1FED681AB4EEC10AF1EE10FA95
:104BB00002D21FED6B0A02E0984890ED050A30EE34
:104BC000C00AF2EE000A60EE200A9548808842F2A0
:104BD0003F01081A00EE100AB8EEC00AB6EE001A3D
:104BE00020EE010AF4EEC00AF1EE10FA0BD28C4866
:104BF0008088401A00EE100AB8EEC00AF6EE000AED
:104C000020EE600A5EE0834890ED050A5FED830ABE
:104C1000B4EEE00AF1EE10FA02DD1FED860A0FE0B5
:104C20007C4890ED050A5FED880AB4EEE00AF1EEEB
:104C300010FA02D21FED8C0A02E0764890ED050AC8
:104C40007548D0ED050A1FED911AF4EEC10AF1EE98
:104C500010FA02DD5FED950A0FE06F48D0ED050A0E
:104C60001FED971AF4EEC10AF1EE10FA02D25FEDD1
:104C70009A0A02E06848D0ED050A70EE200A6748FB
:104C800090ED050A1FEDA11AB4EEC10AF1EE10FA7B
:104C900002DD1FEDA40A0FE0604890ED050A1FED4C
:104CA000A61AB4EEC10AF1EE10FA02D21FEDAA0A5A
:104CB00002E05A4890ED050A30EEC00AF2EE000A12
:104CC00020EE200A56488088A0F500503F3800EEBC
:104CD000900AF8EEE00A1FEDB01A00EE810A5FEDCF
:104CE000B10A30EE200ADFED4F0AB4EEE00AF1EE31
:104CF00010FA02DD9FED4B0A78E1464890ED050A77
:104D00005FEDC00AB4EEE00AF1EE10FA02DD1FED2D
:104D1000C30A0FE03F4890ED050A5FEDC50AB4EE07
:104D2000E00AF1EE10FA02D21FEDC90A02E039489A
:104D300090ED050A3848D0ED050A1FEDCE1AF4EEC5
:104D4000C10AF1EE10FA02DD5FEDD20A0FE032483F
:104D5000D0ED050A1FEDD41AF4EEC10AF1EE10FAF7
:104D600002D25FEDD70A02E02B48D0ED050A70EEC3
:104D7000200A2A4890ED050A1FEDDE1AB4EEC10A9A
:104D8000F1EE10FA02DD1FEDE10A0FE0234890ED8D
:104D9000050A1FEDE31AB4EEC10AF1EE10FA02D2D1
:104DA0001FEDE70A02E01D4890ED050A30EEC00A4B
:104DB000F2EE000A60EE200A19488088A0F5005043
:104DC0003F3800EE100AB8EEC00AB6EE001A20EE28
:104DD000010AF4EEC00AF1EE10FA0DDD10488088E9
:104DE000A0F500503F3800EE100AB8EEC00AF6EE0B
:104DF000000A20EE200AE8E0064890ED050ADFED03
:104E00000A0AB4EEE00AF1EE10FA0FDD9FED060A91
:104E10001CE0000028040020580400208804002022
:104E2000FA03002000007A4600004843F94890ED5C
:104E3000050ADFEDF90AB4EEE00AF1EE10FA02D24B
:104E40009FEDF50A02E0F34890ED050AF348D0ED36
:104E5000050A1FED0B1AF4EEC10AF1EE10FA02DD9D
:104E60005FED0F0A0FE0ED48D0ED050A9FEDEA1A5D
:104E7000F4EEC10AF1EE10FA02D2DFEDE70A02E029
:104E8000E648D0ED050A70EE200AE54890ED050AE7
:104E90001FED1B1AB4EEC10AF1EE10FA02DD1FED90
:104EA0001E0A0FE0DE4890ED050A9FEDDB1AB4EE16
:104EB000C10AF1EE10FA02D29FEDD70A02E0D848FB
:104EC00090ED050A30EEC00AF2EE000A60EE200A0C
:104ED000D448808842F23F01081A00EE100AB8EE6A
:104EE000C00AB6EE001A20EE010AF4EEC00AF1EE96
:104EF00010FA0BD2CB488088401A00EE100AB8EEA8
:104F0000C00AF6EE000A20EE600A5EE0C14890EDAD
:104F1000050A5FED3B0AB4EEE00AF1EE10FA02DD9D
:104F20001FED3F0A0FE0BB4890ED050ADFEDBA0A1E
:104F3000B4EEE00AF1EE10FA02D29FEDB70A02E0F9
:104F4000B44890ED050AB548D0ED050A1FED4A1AA0
:104F5000F4EEC10AF1EE10FA02DD5FED4D0A0FE04A
:104F6000AE48D0ED050A9FEDAC1AF4EEC10AF1EEA1
:104F700010FA02D2DFEDA80A02E0A848D0ED050A37
:104F800070EE200AA64890ED050A1FED591AB4EEFE
:104F9000C10AF1EE10FA02DD1FED5D0A0FE0A04834
:104FA00090ED050A9FED9C1AB4EEC10AF1EE10FADD
:104FB00002D29FED990A02E0994890ED050A30EE81
:104FC000C00AF2EE000A20EE200A96488088A0F57A
:104FD00000503F3800EE900AF8EEE00A9FED921A7A
:104FE00000EE810ADFED910A30EE200ABCEEC00A25
:104FF00010EE100A8E494880864890ED050A5FED54
:10500000760AB4EEE00AF1EE10FA02DD1FED7A0A3C
:105010000FE0804890ED050ADFED7F0AB4EEE00A6C
:10502000F1EE10FA02D29FED7C0A02E0794890ED91
:10503000050A7A48D0ED050A1FED851AF4EEC10A7B
:10504000F1EE10FA02DD5FED880A0FE07348D0ED53
:10505000050A9FED711AF4EEC10AF1EE10FA02D2C0
:10506000DFED6D0A02E06D48D0ED050A70EE200A12
:105070006B4890ED050A1FED941AB4EEC10AF1EEEB
:1050800010FA02DD1FED980A0FE0654890ED050A61
:105090009FED611AB4EEC10AF1EE10FA02D29FED53
:1050A0005E0A02E05E4890ED050A30EE800AF2EEFC
:1050B000000A60EE200A5B488088A0F500503F3867
:1050C00000EE100AB8EEC00AB6EE001A20EE010A91
:1050D000F4EEC00AF1EE10FA01DD012000E000203C
:1050E000404268B14F488088A0F500503F3800EE3C
:1050F000100AB8EEC00AF6EE000A20EE200AEBE035
:10510000444890ED050A5FEDB80AB4EEE00AF1EE0E
:1051100010FA02DD1FEDBC0A0FE03E4890ED050AD3
:10512000DFED3D0AB4EEE00AF1EE10FA02D29FED97
:105130003A0A02E0374890ED050A3848D0ED050AF2
:105140001FEDC71AF4EEC10AF1EE10FA02DD5FEDB1
:10515000CA0A0FE03148D0ED050A9FED2F1AF4EE90
:10516000C10AF1EE10FA02D2DFED2B0A02E02B4861
:10517000D0ED050A70EE200A294890ED050A1FEDD2
:10518000D61AB4EEC10AF1EE10FA02DD1FEDDA0A0A
:105190000FE0234890ED050A9FED1F1AB4EEC10AF7
:1051A000F1EE10FA02D29FED1C0A02E01C4890EDCD
:1051B000050A30EE800AF2EE000A60EE200A194875
:1051C000808842F23F01081A00EE100AB8EEC00AC9
:1051D000B6EE001A20EE010AF4EEC00AF1EE10FA63
:1051E0000BD210488088401A00EE100AB8EEC00AB0
:1051F000F6EE000A20EE600A6EE0064890ED050A21
:105200005FEDF70AB4EEE00AF1EE10FA12DD1FEDE1
:10521000FA0A1FE028040020000048C358040020B8
:1052200088040020FA0300206666A63F0000FA45C5
:10523000E0010020FA4890ED050A5FED090AB4EE9E
:10524000E00AF1EE10FA02D21FED0D0A02E0F44876
:1052500090ED050AF348D0ED050A9FEDF31AF4EE40
:10526000C10AF1EE10FA02DDDFEDEF0A0FE0ED48C2
:10527000D0ED050A1FED181AF4EEC10AF1EE10FA8E
:1052800002D25FED1B0A02E0E648D0ED050A70EE9F
:10529000200AE64890ED050A9FEDE31AB4EEC10A34
:1052A000F1EE10FA02DD9FEDE00A0FE0DF4890ED2D
:1052B000050A1FED271AB4EEC10AF1EE10FA02D268
:1052C0001FED2B0A02E0D94890ED050A30EE800A66
:1052D000F2EE000A20EE200AD5488088A0F50050A2
:1052E0003F3800EE900AF8EEE00A1FED311A00EEAA
:1052F000810A5FED320A30EE200ADFEDCE0AB4EE0D
:10530000E00AF1EE10FA02D29FEDCA0AFAE2C448AE
:1053100090ED050ADFEDC40AB4EEE00AF1EE10FAF2
:1053200002DD9FEDC10A0FE0BD4890ED050A5FED7B
:10533000460AB4EEE00AF1EE10FA02D21FED4A0A74
:1053400002E0B74890ED050AB648D0ED050A9FED9A
:10535000B61AF4EEC10AF1EE10FA02DDDFEDB20A80
:105360000FE0B048D0ED050A1FED551AF4EEC10A62
:10537000F1EE10FA02D25FED580A02E0A948D0ED32
:10538000050A70EE200AA94890ED050A9FEDA61ABD
:10539000B4EEC10AF1EE10FA02DD9FEDA30A0FE0B0
:1053A000A24890ED050A1FED641AB4EEC10AF1EEB1
:1053B00010FA02D21FED680A02E09C4890ED050A3F
:1053C00030EE800AF2EE000A60EE200A98488088EB
:1053D000A0F500503F3800EE100AB8EEC00AB6EE55
:1053E000001A20EE010AF4EEC00AF1EE10FA01DD17
:1053F000012000E00020404268B18D488088A0F57F
:1054000000503F3800EE100AB8EEC00AF6EE000A6F
:1054100020EE200ADBE0824890ED050ADFED820AEB
:10542000B4EEE00AF1EE10FA02DD9FED7F0A0FE024
:105430007B4890ED050A5FED880AB4EEE00AF1EED4
:1054400010FA02D21FED8C0A02E0754890ED050AB1
:105450007448D0ED050A9FED741AF4EEC10AF1EE1E
:1054600010FA02DDDFED700A0FE06E48D0ED050A9C
:105470001FED971AF4EEC10AF1EE10FA02D25FEDB9
:105480009A0A02E06748D0ED050A70EE200A6748E4
:1054900090ED050A9FED641AB4EEC10AF1EE10FA20
:1054A00002DD9FED610A0FE0604890ED050A1FEDF7
:1054B000A61AB4EEC10AF1EE10FA02D21FEDAA0A42
:1054C00002E05A4890ED050A30EE800AF2EE000A3A
:1054D00060EE200A5648808842F23F01081A00EE2A
:1054E000100AB8EEC00AB6EE001A20EE010AF4EE79
:1054F000C00AF1EE10FA0BD24D488088401A00EE37
:10550000100AB8EEC00AF6EE000A20EE600A5EE06D
:10551000434890ED050ADFED440AB4EEE00AF1EEEF
:1055200010FA02DD9FED400A0FE03D4890ED050ABC
:105530005FEDC70AB4EEE00AF1EE10FA02D21FEDF9
:10554000CA0A02E0364890ED050A3648D0ED050A51
:105550009FED351AF4EEC10AF1EE10FA02DDDFED2F
:10556000320A0FE02F48D0ED050A1FEDD51AF4EEF0
:10557000C10AF1EE10FA02D25FEDD90A02E0294821
:10558000D0ED050A70EE200A284890ED050A9FED3F
:10559000261AB4EEC10AF1EE10FA02DD9FED220ADE
:1055A0000FE0224890ED050A1FEDE51AB4EEC10A9E
:1055B000F1EE10FA02D21FEDE80A02E01B4890ED6E
:1055C000050A30EE800AF2EE000A20EE200A1848A2
:1055D0008088A0F500503F3800EE900AF8EEE00A0F
:1055E0001FEDEF1A00EE810A5FEDF00A30EE200A9F
:1055F000DFED110AB4EEE00AF1EE10FA02DD9FEDE4
:105600000E0A7FE1064890ED050ADFED070AB4EEC9
:10561000E00AF1EE10FA11DD9FED030A1EE0000032
:10562000280400205804002000004843880400207B
:10563000FA03002000A00C4600007A46FD4890EDD9
:10564000050ADFEDFD0AB4EEE00AF1EE10FA02D22F
:105650009FEDF90A02E0F74890ED050AF748D0ED12
:10566000050A1FED0F1AF4EEC10AF1EE10FA02DD81
:105670005FED130A0FE0F148D0ED050A9FEDEE1A39
:10568000F4EEC10AF1EE10FA02D2DFEDEB0A02E00D
:10569000EA48D0ED050A70EE200AE94890ED050AC7
:1056A0001FED1F1AB4EEC10AF1EE10FA02DD1FED74
:1056B000220A0FE0E24890ED050A9FEDDF1AB4EEF2
:1056C000C10AF1EE10FA02D29FEDDB0A02E0DC48DB
:1056D00090ED050A30EE800AF2EE000A60EE200A34
:1056E000D8488088A0F500503F3800EE100AB8EE88
:1056F000C00AB6EE001A20EE010AF4EEC00AF1EE7E
:1057000010FA01DD012000E00020404268B1CD48E0
:105710008088A0F500503F3800EE100AB8EEC00AAD
:10572000F6EE000A20EE200ADBE0C24890ED050A02
:105730005FED430AB4EEE00AF1EE10FA02DD1FED70
:10574000460A0FE0BB4890ED050ADFEDBB0AB4EE58
:10575000E00AF1EE10FA02D29FEDB70A02E0B54876
:1057600090ED050AB548D0ED050A1FED511AF4EE8B
:10577000C10AF1EE10FA02DD5FED550A0FE0AF4805
:10578000D0ED050A9FEDAC1AF4EEC10AF1EE10FA65
:1057900002D2DFEDA90A02E0A848D0ED050A70EEBA
:1057A000200AA74890ED050A1FED611AB4EEC10A60
:1057B000F1EE10FA02DD1FED640A0FE0A04890ED53
:1057C000050A9FED9D1AB4EEC10AF1EE10FA02D25D
:1057D0009FED990A02E09A4890ED050A30EE800AA2
:1057E000F2EE000A60EE200A9648808842F23F01FD
:1057F000081A00EE100AB8EEC00AB6EE001A20EE43
:10580000010AF4EEC00AF1EE10FA0BD28D4880883E
:10581000401A00EE100AB8EEC00AF6EE000A20EEBA
:10582000600A5EE0834890ED050A5FED810AB4EE00
:10583000E00AF1EE10FA02DD1FED850A0FE07D4867
:1058400090ED050ADFED7C0AB4EEE00AF1EE10FA05
:1058500002D29FED790A02E0764890ED050A77487A
:10586000D0ED050A1FED901AF4EEC10AF1EE10FA20
:1058700002DD5FED930A0FE07048D0ED050A9FED61
:105880006E1AF4EEC10AF1EE10FA02D2DFED6A0AE6
:1058900002E06A48D0ED050A70EE200A684890EDF3
:1058A000050A1FED9F1AB4EEC10AF1EE10FA02DDEF
:1058B0001FEDA30A0FE0624890ED050A9FED5E1A06
:1058C000B4EEC10AF1EE10FA02D29FED5B0A02E0DB
:1058D0005B4890ED050A30EE800AF2EE000A20EEF9
:1058E000200A58488088A0F500503F3800EE900A02
:1058F000F8EEE00A9FED541A00EE810ADFED530A3C
:1059000030EE200ABCEEC00A10EE100A5049888022
:10591000484890ED050A5FEDBC0AB4EEE00AF1EEEE
:1059200010FA02DD1FEDC00A0FE0424890ED050AB3
:10593000DFED410AB4EEE00AF1EE10FA02D29FED7B
:105940003E0A02E03B4890ED050A3C48D0ED050ACE
:105950001FEDCB1AF4EEC10AF1EE10FA02DD5FED95
:10596000CE0A0FE03548D0ED050A9FED331AF4EE6C
:10597000C10AF1EE10FA02D2DFED2F0A02E02F4841
:10598000D0ED050A70EE600A2D4890ED050A1FED76
:10599000DA1AB4EEC10AF1EE10FA02DD1FEDDE0AEA
:1059A0000FE0274890ED050A9FED231AB4EEC10AD7
:1059B000F1EE10FA02D29FED200A02E0204890EDAD
:1059C000050A30EEC00AF2EE000A60EE200A1D4819
:1059D0008088A0F500503F3800EE100AB8EEC00AEB
:1059E000B6EE001A20EE010AF4EEC00AF1EE10FA4B
:1059F00001DD012000E00020404268B111488088AC
:105A0000A0F500503F3800EE100AB8EEC00AF6EEDE
:105A1000000A20EE200AEEE0064890ED050ADFEDD0
:105A20000D0AB4EEE00AF1EE10FA15DD9FED090A59
:105A300022E0000028040020000048C35804002091
:105A400088040020FA0300206666A63F0000FA459D
:105A5000E001002000004843FB4890ED050A5FED9F
:105A60000A0AB4EEE00AF1EE10FA02D21FED0E0AB5
:105A700002E0F54890ED050AF448D0ED050A1FED67
:105A80000B1AF4EEC10AF1EE10FA02DD5FED0F0A17
:105A90000FE0EE48D0ED050A1FED191AF4EEC10A29
:105AA000F1EE10FA02D25FED1C0A02E0E748D0EDF9
:105AB000050A70EE600AE64890ED050A1FED1B1A14
:105AC000B4EEC10AF1EE10FA02DD1FED1E0A0FE07E
:105AD000DF4890ED050A1FED281AB4EEC10AF1EE79
:105AE00010FA02D21FED2C0A02E0D94890ED050A07
:105AF00030EEC00AF2EE000A60EE200AD548808837
:105B000042F23F01081A00EE100AB8EEC00AB6EEE3
:105B1000001A20EE010AF4EEC00AF1EE10FA0BD2E0
:105B2000CC488088401A00EE100AB8EEC00AF6EEA3
:105B3000000A20EE600A5EE0C34890ED050A5FEDC2
:105B40003B0AB4EEE00AF1EE10FA02DD1FED3F0A67
:105B50000FE0BD4890ED050A5FED490AB4EEE00A9A
:105B6000F1EE10FA02D21FED4C0A02E0B64890EDB9
:105B7000050AB648D0ED050A1FED4A1AF4EEC10A2F
:105B8000F1EE10FA02DD5FED4D0A0FE0AF48D0ED07
:105B9000050A1FED571AF4EEC10AF1EE10FA02D20F
:105BA0005FED5B0A02E0A948D0ED050A70EE600ADD
:105BB000A74890ED050A1FED591AB4EEC10AF1EE9F
:105BC00010FA02DD1FED5D0A0FE0A14890ED050A15
:105BD0001FED671AB4EEC10AF1EE10FA02D21FED02
:105BE0006A0A02E09A4890ED050A30EEC00AF2EE29
:105BF000000A20EE200A97488088A0F500503F3820
:105C000000EE900AF8EEE00A1FED711A00EE810A2C
:105C10005FED720A30EE200ADFED8F0AB4EEE00A83
:105C2000F1EE10FA02D29FED8C0AF5E2864890ED73
:105C3000050A5FED780AB4EEE00AF1EE10FA02DD33
:105C40001FED7C0A0FE0804890ED050A5FED860AA3
:105C5000B4EEE00AF1EE10FA02D21FED890A02E07A
:105C6000794890ED050A7948D0ED050A1FED871AAD
:105C7000F4EEC10AF1EE10FA02DD5FED8A0A0FE0E0
:105C80007248D0ED050A1FED941AF4EEC10AF1EE48
:105C900010FA02D25FED980A02E06C48D0ED050AD6
:105CA00070EE600A6A4890ED050A1FED961AB4EE90
:105CB000C10AF1EE10FA02DD1FED9A0A0FE0644806
:105CC00090ED050A1FEDA41AB4EEC10AF1EE10FA28
:105CD00002D21FEDA70A02E05D4890ED050A30EE02
:105CE000C00AF2EE000A60EE200A5A488088A0F549
:105CF00000503F3800EE100AB8EEC00AB6EE001AA7
:105D000020EE010AF4EEC00AF1EE10FA01DD0120E6
:105D100000E00020404268B14E488088A0F5005065
:105D20003F3800EE100AB8EEC00AF6EE000A20EE88
:105D3000200AE5E0444890ED050A5FEDBA0AB4EEAA
:105D4000E00AF1EE10FA02DD1FEDBE0A0FE03E4858
:105D500090ED050A5FEDC80AB4EEE00AF1EE10FA24
